{
  "contractName": "WalkathonFactory",
  "abi": [
    {
      "inputs": [
        {
          "internalType": "string",
          "name": "",
          "type": "string"
        }
      ],
      "name": "takenNames",
      "outputs": [
        {
          "internalType": "bool",
          "name": "",
          "type": "bool"
        }
      ],
      "stateMutability": "view",
      "type": "function",
      "constant": true
    },
    {
      "inputs": [
        {
          "internalType": "address",
          "name": "to",
          "type": "address"
        },
        {
          "internalType": "uint256",
          "name": "minimum",
          "type": "uint256"
        },
        {
          "internalType": "string",
          "name": "name",
          "type": "string"
        },
        {
          "internalType": "string",
          "name": "description",
          "type": "string"
        }
      ],
      "name": "deployWalkathon",
      "outputs": [],
      "stateMutability": "nonpayable",
      "type": "function"
    },
    {
      "inputs": [],
      "name": "getDeployedWalkathons",
      "outputs": [
        {
          "internalType": "string[]",
          "name": "",
          "type": "string[]"
        }
      ],
      "stateMutability": "view",
      "type": "function",
      "constant": true
    },
    {
      "inputs": [
        {
          "internalType": "string",
          "name": "name",
          "type": "string"
        }
      ],
      "name": "getAddress",
      "outputs": [
        {
          "internalType": "contract Walkathon",
          "name": "",
          "type": "address"
        }
      ],
      "stateMutability": "view",
      "type": "function",
      "constant": true
    }
  ],
  "bytecode": "0x608060405234801561001057600080fd5b5061211e806100206000396000f3fe60806040523480156200001157600080fd5b5060043610620000525760003560e01c806325173b6b146200005757806368b9aca81462000077578063a383c6921462000099578063bf40fac114620000cf575b600080fd5b6200007560048036038101906200006f919062000747565b62000105565b005b620000816200029b565b6040516200009091906200095a565b60405180910390f35b620000b76004803603810190620000b191906200097e565b62000381565b604051620000c69190620009ec565b60405180910390f35b620000ed6004803603810190620000e791906200097e565b620003b7565b604051620000fc919062000a74565b60405180910390f35b60028260405162000117919062000ad3565b908152602001604051809103902060009054906101000a900460ff161562000176576040517f08c379a00000000000000000000000000000000000000000000000000000000081526004016200016d9062000b4d565b60405180910390fd5b6000848484846040516200018a9062000473565b62000199949392919062000bd2565b604051809103906000f080158015620001b6573d6000803e3d6000fd5b5090506001600284604051620001cd919062000ad3565b908152602001604051809103902060006101000a81548160ff02191690831515021790555080600080018460405162000207919062000ad3565b908152602001604051809103902060006101000a81548173ffffffffffffffffffffffffffffffffffffffff021916908373ffffffffffffffffffffffffffffffffffffffff1602179055506000600101839080600181540180825580915050600190039060005260206000200160009091909190915090805190602001906200029392919062000481565b505050505050565b60606000600101805480602002602001604051908101604052809291908181526020016000905b8282101562000378578382906000526020600020018054620002e49062000c5c565b80601f0160208091040260200160405190810160405280929190818152602001828054620003129062000c5c565b8015620003635780601f10620003375761010080835404028352916020019162000363565b820191906000526020600020905b8154815290600101906020018083116200034557829003601f168201915b505050505081526020019060010190620002c2565b50505050905090565b6002818051602081018201805184825260208301602085012081835280955050505050506000915054906101000a900460ff1681565b6000600282604051620003cb919062000ad3565b908152602001604051809103902060009054906101000a900460ff1662000429576040517f08c379a0000000000000000000000000000000000000000000000000000000008152600401620004209062000ce2565b60405180910390fd5b60008001826040516200043d919062000ad3565b908152602001604051809103902060009054906101000a900473ffffffffffffffffffffffffffffffffffffffff169050919050565b6113e48062000d0583390190565b8280546200048f9062000c5c565b90600052602060002090601f016020900481019282620004b35760008555620004ff565b82601f10620004ce57805160ff1916838001178555620004ff565b82800160010185558215620004ff579182015b82811115620004fe578251825591602001919060010190620004e1565b5b5090506200050e919062000512565b5090565b5b808211156200052d57600081600090555060010162000513565b5090565b6000604051905090565b600080fd5b600080fd5b600073ffffffffffffffffffffffffffffffffffffffff82169050919050565b6000620005728262000545565b9050919050565b620005848162000565565b81146200059057600080fd5b50565b600081359050620005a48162000579565b92915050565b6000819050919050565b620005bf81620005aa565b8114620005cb57600080fd5b50565b600081359050620005df81620005b4565b92915050565b600080fd5b600080fd5b6000601f19601f8301169050919050565b7f4e487b7100000000000000000000000000000000000000000000000000000000600052604160045260246000fd5b6200063a82620005ef565b810181811067ffffffffffffffff821117156200065c576200065b62000600565b5b80604052505050565b60006200067162000531565b90506200067f82826200062f565b919050565b600067ffffffffffffffff821115620006a257620006a162000600565b5b620006ad82620005ef565b9050602081019050919050565b82818337600083830152505050565b6000620006e0620006da8462000684565b62000665565b905082815260208101848484011115620006ff57620006fe620005ea565b5b6200070c848285620006ba565b509392505050565b600082601f8301126200072c576200072b620005e5565b5b81356200073e848260208601620006c9565b91505092915050565b600080600080608085870312156200076457620007636200053b565b5b6000620007748782880162000593565b94505060206200078787828801620005ce565b935050604085013567ffffffffffffffff811115620007ab57620007aa62000540565b5b620007b98782880162000714565b925050606085013567ffffffffffffffff811115620007dd57620007dc62000540565b5b620007eb8782880162000714565b91505092959194509250565b600081519050919050565b600082825260208201905092915050565b6000819050602082019050919050565b600081519050919050565b600082825260208201905092915050565b60005b838110156200085f57808201518184015260208101905062000842565b838111156200086f576000848401525b50505050565b6000620008828262000823565b6200088e81856200082e565b9350620008a08185602086016200083f565b620008ab81620005ef565b840191505092915050565b6000620008c4838362000875565b905092915050565b6000602082019050919050565b6000620008e682620007f7565b620008f2818562000802565b935083602082028501620009068562000813565b8060005b85811015620009485784840389528151620009268582620008b6565b94506200093383620008cc565b925060208a019950506001810190506200090a565b50829750879550505050505092915050565b60006020820190508181036000830152620009768184620008d9565b905092915050565b6000602082840312156200099757620009966200053b565b5b600082013567ffffffffffffffff811115620009b857620009b762000540565b5b620009c68482850162000714565b91505092915050565b60008115159050919050565b620009e681620009cf565b82525050565b600060208201905062000a036000830184620009db565b92915050565b6000819050919050565b600062000a3462000a2e62000a288462000545565b62000a09565b62000545565b9050919050565b600062000a488262000a13565b9050919050565b600062000a5c8262000a3b565b9050919050565b62000a6e8162000a4f565b82525050565b600060208201905062000a8b600083018462000a63565b92915050565b600081905092915050565b600062000aa98262000823565b62000ab5818562000a91565b935062000ac78185602086016200083f565b80840191505092915050565b600062000ae1828462000a9c565b915081905092915050565b600082825260208201905092915050565b7f4e616d652063616e6e6f742062652074616b656e000000000000000000000000600082015250565b600062000b3560148362000aec565b915062000b428262000afd565b602082019050919050565b6000602082019050818103600083015262000b688162000b26565b9050919050565b62000b7a8162000565565b82525050565b62000b8b81620005aa565b82525050565b600062000b9e8262000823565b62000baa818562000aec565b935062000bbc8185602086016200083f565b62000bc781620005ef565b840191505092915050565b600060808201905062000be9600083018762000b6f565b62000bf8602083018662000b80565b818103604083015262000c0c818562000b91565b9050818103606083015262000c22818462000b91565b905095945050505050565b7f4e487b7100000000000000000000000000000000000000000000000000000000600052602260045260246000fd5b6000600282049050600182168062000c7557607f821691505b6020821081141562000c8c5762000c8b62000c2d565b5b50919050565b7f436f6e74726163742077697468206e616d65206d757374206578697374000000600082015250565b600062000cca601d8362000aec565b915062000cd78262000c92565b602082019050919050565b6000602082019050818103600083015262000cfd8162000cbb565b905091905056fe60806040523480156200001157600080fd5b50604051620013e4380380620013e48339818101604052810190620000379190620003af565b82600381905550836000806101000a81548173ffffffffffffffffffffffffffffffffffffffff021916908373ffffffffffffffffffffffffffffffffffffffff160217905550816001908051906020019062000096929190620000c2565b508060029080519060200190620000af929190620000c2565b50600060048190555050505050620004c4565b828054620000d0906200048e565b90600052602060002090601f016020900481019282620000f4576000855562000140565b82601f106200010f57805160ff191683800117855562000140565b8280016001018555821562000140579182015b828111156200013f57825182559160200191906001019062000122565b5b5090506200014f919062000153565b5090565b5b808211156200016e57600081600090555060010162000154565b5090565b6000604051905090565b600080fd5b600080fd5b600073ffffffffffffffffffffffffffffffffffffffff82169050919050565b6000620001b38262000186565b9050919050565b620001c581620001a6565b8114620001d157600080fd5b50565b600081519050620001e581620001ba565b92915050565b6000819050919050565b6200020081620001eb565b81146200020c57600080fd5b50565b6000815190506200022081620001f5565b92915050565b600080fd5b600080fd5b6000601f19601f8301169050919050565b7f4e487b7100000000000000000000000000000000000000000000000000000000600052604160045260246000fd5b6200027b8262000230565b810181811067ffffffffffffffff821117156200029d576200029c62000241565b5b80604052505050565b6000620002b262000172565b9050620002c0828262000270565b919050565b600067ffffffffffffffff821115620002e357620002e262000241565b5b620002ee8262000230565b9050602081019050919050565b60005b838110156200031b578082015181840152602081019050620002fe565b838111156200032b576000848401525b50505050565b6000620003486200034284620002c5565b620002a6565b9050828152602081018484840111156200036757620003666200022b565b5b62000374848285620002fb565b509392505050565b600082601f83011262000394576200039362000226565b5b8151620003a684826020860162000331565b91505092915050565b60008060008060808587031215620003cc57620003cb6200017c565b5b6000620003dc87828801620001d4565b9450506020620003ef878288016200020f565b935050604085015167ffffffffffffffff81111562000413576200041262000181565b5b62000421878288016200037c565b925050606085015167ffffffffffffffff81111562000445576200044462000181565b5b62000453878288016200037c565b91505092959194509250565b7f4e487b7100000000000000000000000000000000000000000000000000000000600052602260045260246000fd5b60006002820490506001821680620004a757607f821691505b60208210811415620004be57620004bd6200045f565b5b50919050565b610f1080620004d46000396000f3fe60806040526004361061007b5760003560e01c806366d003ac1161004e57806366d003ac1461012a57806367fa3d4514610155578063a67f958c14610180578063c1cbbca7146101975761007b565b8063348362221461008057806336e058ca146100ab578063597e4734146100d657806366ce47a5146100ff575b600080fd5b34801561008c57600080fd5b506100956101b3565b6040516100a2919061094d565b60405180910390f35b3480156100b757600080fd5b506100c0610241565b6040516100cd9190610988565b60405180910390f35b3480156100e257600080fd5b506100fd60048036038101906100f891906109d4565b610247565b005b34801561010b57600080fd5b5061011461038b565b6040516101219190610988565b60405180910390f35b34801561013657600080fd5b5061013f610391565b60405161014c9190610a42565b60405180910390f35b34801561016157600080fd5b5061016a6103b5565b604051610177919061094d565b60405180910390f35b34801561018c57600080fd5b50610195610443565b005b6101b160048036038101906101ac91906109d4565b610595565b005b600280546101c090610a8c565b80601f01602080910402602001604051908101604052809291908181526020018280546101ec90610a8c565b80156102395780601f1061020e57610100808354040283529160200191610239565b820191906000526020600020905b81548152906001019060200180831161021c57829003601f168201915b505050505081565b60035481565b60008054906101000a900473ffffffffffffffffffffffffffffffffffffffff1673ffffffffffffffffffffffffffffffffffffffff163373ffffffffffffffffffffffffffffffffffffffff16146102d5576040517f08c379a00000000000000000000000000000000000000000000000000000000081526004016102cc90610b30565b60405180910390fd5b60005b60056001018054905081101561038757610374600560000160006005600101848154811061030957610308610b50565b5b9060005260206000200160009054906101000a900473ffffffffffffffffffffffffffffffffffffffff1673ffffffffffffffffffffffffffffffffffffffff1673ffffffffffffffffffffffffffffffffffffffff168152602001908152602001600020836106e6565b808061037f90610bae565b9150506102d8565b5050565b60045481565b60008054906101000a900473ffffffffffffffffffffffffffffffffffffffff1681565b600180546103c290610a8c565b80601f01602080910402602001604051908101604052809291908181526020018280546103ee90610a8c565b801561043b5780601f106104105761010080835404028352916020019161043b565b820191906000526020600020905b81548152906001019060200180831161041e57829003601f168201915b505050505081565b6000600560000160003373ffffffffffffffffffffffffffffffffffffffff1673ffffffffffffffffffffffffffffffffffffffff168152602001908152602001600020905060008160020154826000015461049f9190610bf7565b9050600081116104e4576040517f08c379a00000000000000000000000000000000000000000000000000000000081526004016104db90610c9d565b60405180910390fd5b60003373ffffffffffffffffffffffffffffffffffffffff168260405161050a90610cee565b60006040518083038185875af1925050503d8060008114610547576040519150601f19603f3d011682016040523d82523d6000602084013e61054c565b606091505b5050905080610590576040517f08c379a000000000000000000000000000000000000000000000000000000000815260040161058790610d4f565b60405180910390fd5b505050565b34600354826105a49190610d6f565b11156105e5576040517f08c379a00000000000000000000000000000000000000000000000000000000081526004016105dc90610e3b565b60405180910390fd5b60405180606001604052803481526020018281526020016000815250600560000160003373ffffffffffffffffffffffffffffffffffffffff1673ffffffffffffffffffffffffffffffffffffffff1681526020019081526020016000206000820151816000015560208201518160010155604082015181600201559050506005600101339080600181540180825580915050600190039060005260206000200160009091909190916101000a81548173ffffffffffffffffffffffffffffffffffffffff021916908373ffffffffffffffffffffffffffffffffffffffff16021790555080600460008282546106dc9190610e5b565b9250508190555050565b60008054906101000a900473ffffffffffffffffffffffffffffffffffffffff1673ffffffffffffffffffffffffffffffffffffffff163373ffffffffffffffffffffffffffffffffffffffff161461073e57600080fd5b60008183600101546107509190610d6f565b9050826000015481111561076657826000015490505b60008060009054906101000a900473ffffffffffffffffffffffffffffffffffffffff1673ffffffffffffffffffffffffffffffffffffffff16826040516107ad90610cee565b60006040518083038185875af1925050503d80600081146107ea576040519150601f19603f3d011682016040523d82523d6000602084013e6107ef565b606091505b505090508184600201819055508360010154600460008282546108129190610bf7565b9250508190555080610859576040517f08c379a000000000000000000000000000000000000000000000000000000000815260040161085090610d4f565b60405180910390fd5b83600001548210156108ae577fed15fe640d0e666c2e9c89609c744a84359d6e4b4fbefb2c818f0774c4d09297338386600001546108979190610bf7565b6040516108a5929190610eb1565b60405180910390a15b50505050565b600081519050919050565b600082825260208201905092915050565b60005b838110156108ee5780820151818401526020810190506108d3565b838111156108fd576000848401525b50505050565b6000601f19601f8301169050919050565b600061091f826108b4565b61092981856108bf565b93506109398185602086016108d0565b61094281610903565b840191505092915050565b600060208201905081810360008301526109678184610914565b905092915050565b6000819050919050565b6109828161096f565b82525050565b600060208201905061099d6000830184610979565b92915050565b600080fd5b6109b18161096f565b81146109bc57600080fd5b50565b6000813590506109ce816109a8565b92915050565b6000602082840312156109ea576109e96109a3565b5b60006109f8848285016109bf565b91505092915050565b600073ffffffffffffffffffffffffffffffffffffffff82169050919050565b6000610a2c82610a01565b9050919050565b610a3c81610a21565b82525050565b6000602082019050610a576000830184610a33565b92915050565b7f4e487b7100000000000000000000000000000000000000000000000000000000600052602260045260246000fd5b60006002820490506001821680610aa457607f821691505b60208210811415610ab857610ab7610a5d565b5b50919050565b7f4f6e6c792074686520726563697069656e742063616e20636f6c6c656374207460008201527f68652066756e6473000000000000000000000000000000000000000000000000602082015250565b6000610b1a6028836108bf565b9150610b2582610abe565b604082019050919050565b60006020820190508181036000830152610b4981610b0d565b9050919050565b7f4e487b7100000000000000000000000000000000000000000000000000000000600052603260045260246000fd5b7f4e487b7100000000000000000000000000000000000000000000000000000000600052601160045260246000fd5b6000610bb98261096f565b91507fffffffffffffffffffffffffffffffffffffffffffffffffffffffffffffffff821415610bec57610beb610b7f565b5b600182019050919050565b6000610c028261096f565b9150610c0d8361096f565b925082821015610c2057610c1f610b7f565b5b828203905092915050565b7f4d75737420686176652072656d61696e696e67206d6f6e657920746f20636f6c60008201527f6c65637400000000000000000000000000000000000000000000000000000000602082015250565b6000610c876024836108bf565b9150610c9282610c2b565b604082019050919050565b60006020820190508181036000830152610cb681610c7a565b9050919050565b600081905092915050565b50565b6000610cd8600083610cbd565b9150610ce382610cc8565b600082019050919050565b6000610cf982610ccb565b9150819050919050565b7f4574686572206661696c656420746f2073656e64000000000000000000000000600082015250565b6000610d396014836108bf565b9150610d4482610d03565b602082019050919050565b60006020820190508181036000830152610d6881610d2c565b9050919050565b6000610d7a8261096f565b9150610d858361096f565b9250817fffffffffffffffffffffffffffffffffffffffffffffffffffffffffffffffff0483118215151615610dbe57610dbd610b7f565b5b828202905092915050565b7f4d7573742070617920666f722061206d696e696d756d20616d6f756e74206f6660008201527f20756e6974730000000000000000000000000000000000000000000000000000602082015250565b6000610e256026836108bf565b9150610e3082610dc9565b604082019050919050565b60006020820190508181036000830152610e5481610e18565b9050919050565b6000610e668261096f565b9150610e718361096f565b9250827fffffffffffffffffffffffffffffffffffffffffffffffffffffffffffffffff03821115610ea657610ea5610b7f565b5b828201905092915050565b6000604082019050610ec66000830185610a33565b610ed36020830184610979565b939250505056fea2646970667358221220623a280ea76599fddb7ce48aebaa732182755e3cd9442cd161baca1c8fa7da4b64736f6c634300080a0033a26469706673582212200d152cf8c2bbf92e1a2edc5d7b111f10122e0efd65c11988c0c806da3a4b0c8564736f6c634300080a0033",
  "immutableReferences": {},
  "source": "// SPDX-License-Identifier: MIT\npragma solidity ^0.8.10;\n\ncontract WalkathonFactory {\n    struct KeyMapping {\n      mapping(string => Walkathon) map; \n      string[] keys; \n    }\n    KeyMapping private deployedWalkathons; \n    mapping(string => bool) public takenNames; \n    \n    function deployWalkathon(address to, uint minimum, string memory name, string memory description) public {\n        require(!takenNames[name], \"Name cannot be taken\"); //\n        Walkathon newWalkathon = new Walkathon(to, minimum, name, description); \n        takenNames[name] = true; \n        \n        deployedWalkathons.map[name] = newWalkathon; \n        deployedWalkathons.keys.push(name); \n    }\n    \n    function getDeployedWalkathons() public view returns (string[] memory) {\n        return deployedWalkathons.keys; \n    }\n\n    function getAddress(string memory name) public view returns (Walkathon) {\n      require(takenNames[name], \"Contract with name must exist\"); \n      return deployedWalkathons.map[name];\n    }\n}\n\ncontract Walkathon {\n\n  struct Donation {\n    uint maxValue;\n    uint valuePerUnit;\n    uint paid;\n  }\n\n  struct KeyMapping {\n    mapping(address => Donation) map;\n    address[] keys;\n  }\n\n  address public recipient;\n  string public walkathonName;\n  string public walkathonDescription; \n  // the minimum amount of units a contributor must pay for\n  uint public minimumUnitDeposit;\n  uint public donationPerUnit; \n  KeyMapping private donations;\n                 \n\n  event MoneyToClaim(address claimer, uint remaining);\n  \n  constructor(address to, uint minimum, string memory name, string memory description){\n    minimumUnitDeposit = minimum;\n    recipient = to;\n    walkathonName = name; \n    walkathonDescription = description;\n    donationPerUnit = 0; \n  }\n\n  function contribute(uint valuePerUnit) public payable {\n    // require to pay for at least minimumUnitDeposit amount of units\n    require(valuePerUnit * minimumUnitDeposit <= msg.value, \"Must pay for a minimum amount of units\");\n    donations.map[msg.sender] = Donation({\n      maxValue: msg.value,\n      valuePerUnit: valuePerUnit,\n      paid: 0\n    });\n    donations.keys.push(msg.sender);\n    donationPerUnit += valuePerUnit; \n  }\n\n  function pay(Donation storage d, uint walked) private {\n    require(msg.sender == recipient);\n    uint toPay = d.valuePerUnit * walked;\n    if (toPay > d.maxValue) {\n      toPay = d.maxValue;\n \n    }\n    (bool sent, ) = recipient.call{value: toPay}(\"\");\n    d.paid = toPay;\n    donationPerUnit -= d.valuePerUnit; \n    require(sent, \"Ether failed to send\");\n    if (toPay < d.maxValue) {\n      emit MoneyToClaim(msg.sender, d.maxValue - toPay);\n    }\n  }\n\n  function collectFunds(uint walked) public {\n    require(msg.sender == recipient, \"Only the recipient can collect the funds\");\n    for (uint i = 0; i < donations.keys.length; i++) {\n      pay(donations.map[donations.keys[i]], walked);\n    }\n  }\n\n  function claimUnspentFunds() public {\n    Donation storage donation = donations.map[msg.sender];\n    uint remainingToPay = donation.maxValue - donation.paid;\n    require(remainingToPay > 0, \"Must have remaining money to collect\");\n    (bool sent, ) = msg.sender.call{value: remainingToPay}(\"\");\n    require(sent, \"Ether failed to send\");\n  }\n}\n",
  "sourcePath": "/Users/avichailevenson/Documents/Documents - Avichais MacBook Air/xathon/contracts/Walkathon.sol",
  "compiler": {
    "name": "solc",
    "version": "0.8.10+commit.fc410830.Emscripten.clang"
  },
  "schemaVersion": "3.4.3",
  "updatedAt": "2021-11-23T01:33:53.155Z",
  "networkType": "ethereum",
  "devdoc": {
    "kind": "dev",
    "methods": {},
    "version": 1
  },
  "userdoc": {
    "kind": "user",
    "methods": {},
    "version": 1
  }
}