{
  "contractName": "XathonFactory",
  "abi": [
    {
      "inputs": [
        {
          "internalType": "string",
          "name": "",
          "type": "string"
        }
      ],
      "name": "takenNames",
      "outputs": [
        {
          "internalType": "bool",
          "name": "",
          "type": "bool"
        }
      ],
      "stateMutability": "view",
      "type": "function",
      "constant": true
    },
    {
      "inputs": [
        {
          "internalType": "address",
          "name": "to",
          "type": "address"
        },
        {
          "internalType": "uint256",
          "name": "minimum",
          "type": "uint256"
        },
        {
          "internalType": "string",
          "name": "unit",
          "type": "string"
        },
        {
          "internalType": "string",
          "name": "name",
          "type": "string"
        },
        {
          "internalType": "string",
          "name": "description",
          "type": "string"
        }
      ],
      "name": "deployXathon",
      "outputs": [],
      "stateMutability": "nonpayable",
      "type": "function"
    },
    {
      "inputs": [],
      "name": "getDeployedXathons",
      "outputs": [
        {
          "internalType": "string[]",
          "name": "",
          "type": "string[]"
        }
      ],
      "stateMutability": "view",
      "type": "function",
      "constant": true
    },
    {
      "inputs": [
        {
          "internalType": "string",
          "name": "name",
          "type": "string"
        }
      ],
      "name": "getAddress",
      "outputs": [
        {
          "internalType": "contract Xathon",
          "name": "",
          "type": "address"
        }
      ],
      "stateMutability": "view",
      "type": "function",
      "constant": true
    }
  ],
  "bytecode": "0x608060405234801561001057600080fd5b50612280806100206000396000f3fe60806040523480156200001157600080fd5b5060043610620000525760003560e01c806336a646ee1462000057578063a383c6921462000079578063bf40fac114620000af578063ed5dd6f814620000e5575b600080fd5b6200006162000105565b604051620000709190620006a8565b60405180910390f35b62000097600480360381019062000091919062000831565b620001eb565b604051620000a691906200089f565b60405180910390f35b620000cd6004803603810190620000c7919062000831565b62000221565b604051620000dc919062000947565b60405180910390f35b620001036004803603810190620000fd9190620009e4565b620002dd565b005b60606000600101805480602002602001604051908101604052809291908181526020016000905b82821015620001e25783829060005260206000200180546200014e9062000af8565b80601f01602080910402602001604051908101604052809291908181526020018280546200017c9062000af8565b8015620001cd5780601f10620001a157610100808354040283529160200191620001cd565b820191906000526020600020905b815481529060010190602001808311620001af57829003601f168201915b5050505050815260200190600101906200012c565b50505050905090565b6002818051602081018201805184825260208301602085012081835280955050505050506000915054906101000a900460ff1681565b600060028260405162000235919062000b70565b908152602001604051809103902060009054906101000a900460ff1662000293576040517f08c379a00000000000000000000000000000000000000000000000000000000081526004016200028a9062000bea565b60405180910390fd5b6000800182604051620002a7919062000b70565b908152602001604051809103902060009054906101000a900473ffffffffffffffffffffffffffffffffffffffff169050919050565b600282604051620002ef919062000b70565b908152602001604051809103902060009054906101000a900460ff16156200034e576040517f08c379a0000000000000000000000000000000000000000000000000000000008152600401620003459062000c5c565b60405180910390fd5b60008585858585604051620003639062000476565b6200037395949392919062000ce1565b604051809103906000f08015801562000390573d6000803e3d6000fd5b5090506001600284604051620003a7919062000b70565b908152602001604051809103902060006101000a81548160ff021916908315150217905550806000800184604051620003e1919062000b70565b908152602001604051809103902060006101000a81548173ffffffffffffffffffffffffffffffffffffffff021916908373ffffffffffffffffffffffffffffffffffffffff1602179055506000600101839080600181540180825580915050600190039060005260206000200160009091909190915090805190602001906200046d92919062000484565b50505050505050565b6114f78062000d5483390190565b828054620004929062000af8565b90600052602060002090601f016020900481019282620004b6576000855562000502565b82601f10620004d157805160ff191683800117855562000502565b8280016001018555821562000502579182015b8281111562000501578251825591602001919060010190620004e4565b5b50905062000511919062000515565b5090565b5b808211156200053057600081600090555060010162000516565b5090565b600081519050919050565b600082825260208201905092915050565b6000819050602082019050919050565b600081519050919050565b600082825260208201905092915050565b60005b838110156200059c5780820151818401526020810190506200057f565b83811115620005ac576000848401525b50505050565b6000601f19601f8301169050919050565b6000620005d08262000560565b620005dc81856200056b565b9350620005ee8185602086016200057c565b620005f981620005b2565b840191505092915050565b6000620006128383620005c3565b905092915050565b6000602082019050919050565b6000620006348262000534565b6200064081856200053f565b935083602082028501620006548562000550565b8060005b8581101562000696578484038952815162000674858262000604565b945062000681836200061a565b925060208a0199505060018101905062000658565b50829750879550505050505092915050565b60006020820190508181036000830152620006c4818462000627565b905092915050565b6000604051905090565b600080fd5b600080fd5b600080fd5b600080fd5b7f4e487b7100000000000000000000000000000000000000000000000000000000600052604160045260246000fd5b6200072482620005b2565b810181811067ffffffffffffffff82111715620007465762000745620006ea565b5b80604052505050565b60006200075b620006cc565b905062000769828262000719565b919050565b600067ffffffffffffffff8211156200078c576200078b620006ea565b5b6200079782620005b2565b9050602081019050919050565b82818337600083830152505050565b6000620007ca620007c4846200076e565b6200074f565b905082815260208101848484011115620007e957620007e8620006e5565b5b620007f6848285620007a4565b509392505050565b600082601f830112620008165762000815620006e0565b5b813562000828848260208601620007b3565b91505092915050565b6000602082840312156200084a5762000849620006d6565b5b600082013567ffffffffffffffff8111156200086b576200086a620006db565b5b6200087984828501620007fe565b91505092915050565b60008115159050919050565b620008998162000882565b82525050565b6000602082019050620008b660008301846200088e565b92915050565b600073ffffffffffffffffffffffffffffffffffffffff82169050919050565b6000819050919050565b60006200090762000901620008fb84620008bc565b620008dc565b620008bc565b9050919050565b60006200091b82620008e6565b9050919050565b60006200092f826200090e565b9050919050565b620009418162000922565b82525050565b60006020820190506200095e600083018462000936565b92915050565b60006200097182620008bc565b9050919050565b620009838162000964565b81146200098f57600080fd5b50565b600081359050620009a38162000978565b92915050565b6000819050919050565b620009be81620009a9565b8114620009ca57600080fd5b50565b600081359050620009de81620009b3565b92915050565b600080600080600060a0868803121562000a035762000a02620006d6565b5b600062000a138882890162000992565b955050602062000a2688828901620009cd565b945050604086013567ffffffffffffffff81111562000a4a5762000a49620006db565b5b62000a5888828901620007fe565b935050606086013567ffffffffffffffff81111562000a7c5762000a7b620006db565b5b62000a8a88828901620007fe565b925050608086013567ffffffffffffffff81111562000aae5762000aad620006db565b5b62000abc88828901620007fe565b9150509295509295909350565b7f4e487b7100000000000000000000000000000000000000000000000000000000600052602260045260246000fd5b6000600282049050600182168062000b1157607f821691505b6020821081141562000b285762000b2762000ac9565b5b50919050565b600081905092915050565b600062000b468262000560565b62000b52818562000b2e565b935062000b648185602086016200057c565b80840191505092915050565b600062000b7e828462000b39565b915081905092915050565b600082825260208201905092915050565b7f436f6e74726163742077697468206e616d65206d757374206578697374000000600082015250565b600062000bd2601d8362000b89565b915062000bdf8262000b9a565b602082019050919050565b6000602082019050818103600083015262000c058162000bc3565b9050919050565b7f4e616d652063616e6e6f742062652074616b656e000000000000000000000000600082015250565b600062000c4460148362000b89565b915062000c518262000c0c565b602082019050919050565b6000602082019050818103600083015262000c778162000c35565b9050919050565b62000c898162000964565b82525050565b62000c9a81620009a9565b82525050565b600062000cad8262000560565b62000cb9818562000b89565b935062000ccb8185602086016200057c565b62000cd681620005b2565b840191505092915050565b600060a08201905062000cf8600083018862000c7e565b62000d07602083018762000c8f565b818103604083015262000d1b818662000ca0565b9050818103606083015262000d31818562000ca0565b9050818103608083015262000d47818462000ca0565b9050969550505050505056fe60806040523480156200001157600080fd5b50604051620014f7380380620014f78339818101604052810190620000379190620003c9565b83600381905550846000806101000a81548173ffffffffffffffffffffffffffffffffffffffff021916908373ffffffffffffffffffffffffffffffffffffffff160217905550816001908051906020019062000096929190620000dc565b508060029080519060200190620000af929190620000dc565b508260059080519060200190620000c8929190620000dc565b506000600481905550505050505062000513565b828054620000ea90620004dd565b90600052602060002090601f0160209004810192826200010e57600085556200015a565b82601f106200012957805160ff19168380011785556200015a565b828001600101855582156200015a579182015b82811115620001595782518255916020019190600101906200013c565b5b5090506200016991906200016d565b5090565b5b80821115620001885760008160009055506001016200016e565b5090565b6000604051905090565b600080fd5b600080fd5b600073ffffffffffffffffffffffffffffffffffffffff82169050919050565b6000620001cd82620001a0565b9050919050565b620001df81620001c0565b8114620001eb57600080fd5b50565b600081519050620001ff81620001d4565b92915050565b6000819050919050565b6200021a8162000205565b81146200022657600080fd5b50565b6000815190506200023a816200020f565b92915050565b600080fd5b600080fd5b6000601f19601f8301169050919050565b7f4e487b7100000000000000000000000000000000000000000000000000000000600052604160045260246000fd5b62000295826200024a565b810181811067ffffffffffffffff82111715620002b757620002b66200025b565b5b80604052505050565b6000620002cc6200018c565b9050620002da82826200028a565b919050565b600067ffffffffffffffff821115620002fd57620002fc6200025b565b5b62000308826200024a565b9050602081019050919050565b60005b838110156200033557808201518184015260208101905062000318565b8381111562000345576000848401525b50505050565b6000620003626200035c84620002df565b620002c0565b90508281526020810184848401111562000381576200038062000245565b5b6200038e84828562000315565b509392505050565b600082601f830112620003ae57620003ad62000240565b5b8151620003c08482602086016200034b565b91505092915050565b600080600080600060a08688031215620003e857620003e762000196565b5b6000620003f888828901620001ee565b95505060206200040b8882890162000229565b945050604086015167ffffffffffffffff8111156200042f576200042e6200019b565b5b6200043d8882890162000396565b935050606086015167ffffffffffffffff8111156200046157620004606200019b565b5b6200046f8882890162000396565b925050608086015167ffffffffffffffff8111156200049357620004926200019b565b5b620004a18882890162000396565b9150509295509295909350565b7f4e487b7100000000000000000000000000000000000000000000000000000000600052602260045260246000fd5b60006002820490506001821680620004f657607f821691505b602082108114156200050d576200050c620004ae565b5b50919050565b610fd480620005236000396000f3fe6080604052600436106100865760003560e01c806366ce47a51161005957806366ce47a51461013557806366d003ac146101605780638c857a1a1461018b578063a67f958c146101b6578063c1cbbca7146101cd57610086565b8063034fbdb71461008b57806336e058ca146100b65780633b655cc4146100e1578063597e47341461010c575b600080fd5b34801561009757600080fd5b506100a06101e9565b6040516100ad9190610a11565b60405180910390f35b3480156100c257600080fd5b506100cb610277565b6040516100d89190610a4c565b60405180910390f35b3480156100ed57600080fd5b506100f661027d565b6040516101039190610a11565b60405180910390f35b34801561011857600080fd5b50610133600480360381019061012e9190610a98565b61030b565b005b34801561014157600080fd5b5061014a61044f565b6040516101579190610a4c565b60405180910390f35b34801561016c57600080fd5b50610175610455565b6040516101829190610b06565b60405180910390f35b34801561019757600080fd5b506101a0610479565b6040516101ad9190610a11565b60405180910390f35b3480156101c257600080fd5b506101cb610507565b005b6101e760048036038101906101e29190610a98565b610659565b005b600180546101f690610b50565b80601f016020809104026020016040519081016040528092919081815260200182805461022290610b50565b801561026f5780601f106102445761010080835404028352916020019161026f565b820191906000526020600020905b81548152906001019060200180831161025257829003601f168201915b505050505081565b60035481565b6002805461028a90610b50565b80601f01602080910402602001604051908101604052809291908181526020018280546102b690610b50565b80156103035780601f106102d857610100808354040283529160200191610303565b820191906000526020600020905b8154815290600101906020018083116102e657829003601f168201915b505050505081565b60008054906101000a900473ffffffffffffffffffffffffffffffffffffffff1673ffffffffffffffffffffffffffffffffffffffff163373ffffffffffffffffffffffffffffffffffffffff1614610399576040517f08c379a000000000000000000000000000000000000000000000000000000000815260040161039090610bf4565b60405180910390fd5b60005b60066001018054905081101561044b5761043860066000016000600660010184815481106103cd576103cc610c14565b5b9060005260206000200160009054906101000a900473ffffffffffffffffffffffffffffffffffffffff1673ffffffffffffffffffffffffffffffffffffffff1673ffffffffffffffffffffffffffffffffffffffff168152602001908152602001600020836107aa565b808061044390610c72565b91505061039c565b5050565b60045481565b60008054906101000a900473ffffffffffffffffffffffffffffffffffffffff1681565b6005805461048690610b50565b80601f01602080910402602001604051908101604052809291908181526020018280546104b290610b50565b80156104ff5780601f106104d4576101008083540402835291602001916104ff565b820191906000526020600020905b8154815290600101906020018083116104e257829003601f168201915b505050505081565b6000600660000160003373ffffffffffffffffffffffffffffffffffffffff1673ffffffffffffffffffffffffffffffffffffffff16815260200190815260200160002090506000816002015482600001546105639190610cbb565b9050600081116105a8576040517f08c379a000000000000000000000000000000000000000000000000000000000815260040161059f90610d61565b60405180910390fd5b60003373ffffffffffffffffffffffffffffffffffffffff16826040516105ce90610db2565b60006040518083038185875af1925050503d806000811461060b576040519150601f19603f3d011682016040523d82523d6000602084013e610610565b606091505b5050905080610654576040517f08c379a000000000000000000000000000000000000000000000000000000000815260040161064b90610e13565b60405180910390fd5b505050565b34600354826106689190610e33565b11156106a9576040517f08c379a00000000000000000000000000000000000000000000000000000000081526004016106a090610eff565b60405180910390fd5b60405180606001604052803481526020018281526020016000815250600660000160003373ffffffffffffffffffffffffffffffffffffffff1673ffffffffffffffffffffffffffffffffffffffff1681526020019081526020016000206000820151816000015560208201518160010155604082015181600201559050506006600101339080600181540180825580915050600190039060005260206000200160009091909190916101000a81548173ffffffffffffffffffffffffffffffffffffffff021916908373ffffffffffffffffffffffffffffffffffffffff16021790555080600460008282546107a09190610f1f565b9250508190555050565b60008054906101000a900473ffffffffffffffffffffffffffffffffffffffff1673ffffffffffffffffffffffffffffffffffffffff163373ffffffffffffffffffffffffffffffffffffffff161461080257600080fd5b60008183600101546108149190610e33565b9050826000015481111561082a57826000015490505b60008060009054906101000a900473ffffffffffffffffffffffffffffffffffffffff1673ffffffffffffffffffffffffffffffffffffffff168260405161087190610db2565b60006040518083038185875af1925050503d80600081146108ae576040519150601f19603f3d011682016040523d82523d6000602084013e6108b3565b606091505b505090508184600201819055508360010154600460008282546108d69190610cbb565b925050819055508061091d576040517f08c379a000000000000000000000000000000000000000000000000000000000815260040161091490610e13565b60405180910390fd5b8360000154821015610972577fed15fe640d0e666c2e9c89609c744a84359d6e4b4fbefb2c818f0774c4d092973383866000015461095b9190610cbb565b604051610969929190610f75565b60405180910390a15b50505050565b600081519050919050565b600082825260208201905092915050565b60005b838110156109b2578082015181840152602081019050610997565b838111156109c1576000848401525b50505050565b6000601f19601f8301169050919050565b60006109e382610978565b6109ed8185610983565b93506109fd818560208601610994565b610a06816109c7565b840191505092915050565b60006020820190508181036000830152610a2b81846109d8565b905092915050565b6000819050919050565b610a4681610a33565b82525050565b6000602082019050610a616000830184610a3d565b92915050565b600080fd5b610a7581610a33565b8114610a8057600080fd5b50565b600081359050610a9281610a6c565b92915050565b600060208284031215610aae57610aad610a67565b5b6000610abc84828501610a83565b91505092915050565b600073ffffffffffffffffffffffffffffffffffffffff82169050919050565b6000610af082610ac5565b9050919050565b610b0081610ae5565b82525050565b6000602082019050610b1b6000830184610af7565b92915050565b7f4e487b7100000000000000000000000000000000000000000000000000000000600052602260045260246000fd5b60006002820490506001821680610b6857607f821691505b60208210811415610b7c57610b7b610b21565b5b50919050565b7f4f6e6c792074686520726563697069656e742063616e20636f6c6c656374207460008201527f68652066756e6473000000000000000000000000000000000000000000000000602082015250565b6000610bde602883610983565b9150610be982610b82565b604082019050919050565b60006020820190508181036000830152610c0d81610bd1565b9050919050565b7f4e487b7100000000000000000000000000000000000000000000000000000000600052603260045260246000fd5b7f4e487b7100000000000000000000000000000000000000000000000000000000600052601160045260246000fd5b6000610c7d82610a33565b91507fffffffffffffffffffffffffffffffffffffffffffffffffffffffffffffffff821415610cb057610caf610c43565b5b600182019050919050565b6000610cc682610a33565b9150610cd183610a33565b925082821015610ce457610ce3610c43565b5b828203905092915050565b7f4d75737420686176652072656d61696e696e67206d6f6e657920746f20636f6c60008201527f6c65637400000000000000000000000000000000000000000000000000000000602082015250565b6000610d4b602483610983565b9150610d5682610cef565b604082019050919050565b60006020820190508181036000830152610d7a81610d3e565b9050919050565b600081905092915050565b50565b6000610d9c600083610d81565b9150610da782610d8c565b600082019050919050565b6000610dbd82610d8f565b9150819050919050565b7f4574686572206661696c656420746f2073656e64000000000000000000000000600082015250565b6000610dfd601483610983565b9150610e0882610dc7565b602082019050919050565b60006020820190508181036000830152610e2c81610df0565b9050919050565b6000610e3e82610a33565b9150610e4983610a33565b9250817fffffffffffffffffffffffffffffffffffffffffffffffffffffffffffffffff0483118215151615610e8257610e81610c43565b5b828202905092915050565b7f4d7573742070617920666f722061206d696e696d756d20616d6f756e74206f6660008201527f20756e6974730000000000000000000000000000000000000000000000000000602082015250565b6000610ee9602683610983565b9150610ef482610e8d565b604082019050919050565b60006020820190508181036000830152610f1881610edc565b9050919050565b6000610f2a82610a33565b9150610f3583610a33565b9250827fffffffffffffffffffffffffffffffffffffffffffffffffffffffffffffffff03821115610f6a57610f69610c43565b5b828201905092915050565b6000604082019050610f8a6000830185610af7565b610f976020830184610a3d565b939250505056fea2646970667358221220e3c08887d2aedc41c51e2c662bc97f54ccdad6ab673c0216f361b2ec01b7ed6864736f6c634300080a0033a264697066735822122090541183b2cf4d720c11326538d42e27f57b53e6102e95f88fc309e5e2fdd6b864736f6c634300080a0033",
  "immutableReferences": {},
  "source": "// SPDX-License-Identifier: MIT\npragma solidity ^0.8.10;\n\ncontract XathonFactory {\n    struct KeyMapping {\n      mapping(string => Xathon) map; \n      string[] keys; \n    }\n\n    KeyMapping private deployedXathons; \n    mapping(string => bool) public takenNames; \n    \n    function deployXathon(address to, uint minimum, string memory unit, string memory name, string memory description) public {\n        require(!takenNames[name], \"Name cannot be taken\");\n        Xathon newXathon = new Xathon(to, minimum, unit, name, description); \n        takenNames[name] = true; \n        \n        deployedXathons.map[name] = newXathon; \n        deployedXathons.keys.push(name); \n    }\n    \n    function getDeployedXathons() public view returns (string[] memory) {\n        return deployedXathons.keys; \n    }\n\n    function getAddress(string memory name) public view returns (Xathon) {\n      require(takenNames[name], \"Contract with name must exist\"); \n      return deployedXathons.map[name];\n    }\n}\n\ncontract Xathon {\n\n  struct Donation {\n    uint maxValue;\n    uint valuePerUnit;\n    uint paid;\n  }\n\n  struct KeyMapping {\n    mapping(address => Donation) map;\n    address[] keys;\n  }\n\n  address public recipient;\n  string public xathonName;\n  string public xathonDescription; \n\n  // the minimum amount of units a contributor must pay for\n  uint public minimumUnitDeposit;\n  uint public donationPerUnit; \n  string public xathonUnit; \n  KeyMapping private donations;\n                 \n\n  event MoneyToClaim(address claimer, uint remaining);\n  \n  constructor(address to, uint minimum, string memory unit, string memory name, string memory description){\n    minimumUnitDeposit = minimum;\n    recipient = to;\n    xathonName = name; \n    xathonDescription = description;\n    xathonUnit = unit;\n    donationPerUnit = 0; \n  }\n\n  function contribute(uint valuePerUnit) public payable {\n    // require to pay for at least minimumUnitDeposit amount of units\n    require(valuePerUnit * minimumUnitDeposit <= msg.value, \"Must pay for a minimum amount of units\");\n    donations.map[msg.sender] = Donation({\n      maxValue: msg.value,\n      valuePerUnit: valuePerUnit,\n      paid: 0\n    });\n    donations.keys.push(msg.sender);\n    donationPerUnit += valuePerUnit; \n  }\n\n  function pay(Donation storage d, uint walked) private {\n    require(msg.sender == recipient);\n    uint toPay = d.valuePerUnit * walked;\n    if (toPay > d.maxValue) {\n      toPay = d.maxValue;\n \n    }\n    (bool sent, ) = recipient.call{value: toPay}(\"\");\n    d.paid = toPay;\n    donationPerUnit -= d.valuePerUnit; \n    require(sent, \"Ether failed to send\");\n    if (toPay < d.maxValue) {\n      emit MoneyToClaim(msg.sender, d.maxValue - toPay);\n    }\n  }\n\n  function collectFunds(uint walked) public {\n    require(msg.sender == recipient, \"Only the recipient can collect the funds\");\n    for (uint i = 0; i < donations.keys.length; i++) {\n      pay(donations.map[donations.keys[i]], walked);\n    }\n  }\n\n  function claimUnspentFunds() public {\n    Donation storage donation = donations.map[msg.sender];\n    uint remainingToPay = donation.maxValue - donation.paid;\n    require(remainingToPay > 0, \"Must have remaining money to collect\");\n    (bool sent, ) = msg.sender.call{value: remainingToPay}(\"\");\n    require(sent, \"Ether failed to send\");\n  }\n}\n",
  "sourcePath": "/Users/avichailevenson/Documents/Documents - Avichais MacBook Air/xathon/xathon-ethereum/contracts/Walkathon.sol",
  "compiler": {
    "name": "solc",
    "version": "0.8.10+commit.fc410830.Emscripten.clang"
  },
  "schemaVersion": "3.4.3",
  "updatedAt": "2021-12-01T06:14:26.655Z",
  "networkType": "ethereum",
  "devdoc": {
    "kind": "dev",
    "methods": {},
    "version": 1
  },
  "userdoc": {
    "kind": "user",
    "methods": {},
    "version": 1
  }
}