{
  "contractName": "XathonFactory",
  "abi": [
    {
      "inputs": [
        {
          "internalType": "string",
          "name": "",
          "type": "string"
        }
      ],
      "name": "takenNames",
      "outputs": [
        {
          "internalType": "bool",
          "name": "",
          "type": "bool"
        }
      ],
      "stateMutability": "view",
      "type": "function",
      "constant": true
    },
    {
      "inputs": [
        {
          "internalType": "address",
          "name": "to",
          "type": "address"
        },
        {
          "internalType": "uint256",
          "name": "minimum",
          "type": "uint256"
        },
        {
          "internalType": "string",
          "name": "unit",
          "type": "string"
        },
        {
          "internalType": "string",
          "name": "name",
          "type": "string"
        },
        {
          "internalType": "string",
          "name": "description",
          "type": "string"
        }
      ],
      "name": "deployXathon",
      "outputs": [],
      "stateMutability": "nonpayable",
      "type": "function"
    },
    {
      "inputs": [],
      "name": "getDeployedXathons",
      "outputs": [
        {
          "internalType": "string[]",
          "name": "",
          "type": "string[]"
        }
      ],
      "stateMutability": "view",
      "type": "function",
      "constant": true
    },
    {
      "inputs": [
        {
          "internalType": "string",
          "name": "name",
          "type": "string"
        }
      ],
      "name": "getAddress",
      "outputs": [
        {
          "internalType": "contract Xathon",
          "name": "",
          "type": "address"
        }
      ],
      "stateMutability": "view",
      "type": "function",
      "constant": true
    }
  ],
  "bytecode": "0x608060405234801561001057600080fd5b5061261c806100206000396000f3fe60806040523480156200001157600080fd5b5060043610620000525760003560e01c806336a646ee1462000057578063a383c6921462000079578063bf40fac114620000af578063ed5dd6f814620000e5575b600080fd5b6200006162000105565b604051620000709190620005e7565b60405180910390f35b62000097600480360381019062000091919062000770565b620001eb565b604051620000a69190620007de565b60405180910390f35b620000cd6004803603810190620000c7919062000770565b62000221565b604051620000dc919062000886565b60405180910390f35b620001036004803603810190620000fd919062000923565b620002dd565b005b60606000600101805480602002602001604051908101604052809291908181526020016000905b82821015620001e25783829060005260206000200180546200014e9062000a37565b80601f01602080910402602001604051908101604052809291908181526020018280546200017c9062000a37565b8015620001cd5780601f10620001a157610100808354040283529160200191620001cd565b820191906000526020600020905b815481529060010190602001808311620001af57829003601f168201915b5050505050815260200190600101906200012c565b50505050905090565b6002818051602081018201805184825260208301602085012081835280955050505050506000915054906101000a900460ff1681565b600060028260405162000235919062000aae565b908152602001604051809103902060009054906101000a900460ff1662000293576040517f08c379a00000000000000000000000000000000000000000000000000000000081526004016200028a9062000b28565b60405180910390fd5b6000800182604051620002a7919062000aae565b908152602001604051809103902060009054906101000a900473ffffffffffffffffffffffffffffffffffffffff169050919050565b600282604051620002ef919062000aae565b908152602001604051809103902060009054906101000a900460ff16156200034e576040517f08c379a0000000000000000000000000000000000000000000000000000000008152600401620003459062000b9a565b60405180910390fd5b6000858585858560405162000363906200046f565b6200037395949392919062000c1f565b604051809103906000f08015801562000390573d6000803e3d6000fd5b5090506001600284604051620003a7919062000aae565b908152602001604051809103902060006101000a81548160ff021916908315150217905550806000800184604051620003e1919062000aae565b908152602001604051809103902060006101000a81548173ffffffffffffffffffffffffffffffffffffffff021916908373ffffffffffffffffffffffffffffffffffffffff16021790555060006001018390806001815401808255809150506001900390600052602060002001600090919091909150908162000466919062000e59565b50505050505050565b6116a68062000f4183390190565b600081519050919050565b600082825260208201905092915050565b6000819050602082019050919050565b600081519050919050565b600082825260208201905092915050565b60005b83811015620004e5578082015181840152602081019050620004c8565b60008484015250505050565b6000601f19601f8301169050919050565b60006200050f82620004a9565b6200051b8185620004b4565b93506200052d818560208601620004c5565b6200053881620004f1565b840191505092915050565b600062000551838362000502565b905092915050565b6000602082019050919050565b600062000573826200047d565b6200057f818562000488565b935083602082028501620005938562000499565b8060005b85811015620005d55784840389528151620005b3858262000543565b9450620005c08362000559565b925060208a0199505060018101905062000597565b50829750879550505050505092915050565b6000602082019050818103600083015262000603818462000566565b905092915050565b6000604051905090565b600080fd5b600080fd5b600080fd5b600080fd5b7f4e487b7100000000000000000000000000000000000000000000000000000000600052604160045260246000fd5b6200066382620004f1565b810181811067ffffffffffffffff8211171562000685576200068462000629565b5b80604052505050565b60006200069a6200060b565b9050620006a8828262000658565b919050565b600067ffffffffffffffff821115620006cb57620006ca62000629565b5b620006d682620004f1565b9050602081019050919050565b82818337600083830152505050565b6000620007096200070384620006ad565b6200068e565b90508281526020810184848401111562000728576200072762000624565b5b62000735848285620006e3565b509392505050565b600082601f8301126200075557620007546200061f565b5b813562000767848260208601620006f2565b91505092915050565b60006020828403121562000789576200078862000615565b5b600082013567ffffffffffffffff811115620007aa57620007a96200061a565b5b620007b8848285016200073d565b91505092915050565b60008115159050919050565b620007d881620007c1565b82525050565b6000602082019050620007f56000830184620007cd565b92915050565b600073ffffffffffffffffffffffffffffffffffffffff82169050919050565b6000819050919050565b600062000846620008406200083a84620007fb565b6200081b565b620007fb565b9050919050565b60006200085a8262000825565b9050919050565b60006200086e826200084d565b9050919050565b620008808162000861565b82525050565b60006020820190506200089d600083018462000875565b92915050565b6000620008b082620007fb565b9050919050565b620008c281620008a3565b8114620008ce57600080fd5b50565b600081359050620008e281620008b7565b92915050565b6000819050919050565b620008fd81620008e8565b81146200090957600080fd5b50565b6000813590506200091d81620008f2565b92915050565b600080600080600060a0868803121562000942576200094162000615565b5b60006200095288828901620008d1565b955050602062000965888289016200090c565b945050604086013567ffffffffffffffff8111156200098957620009886200061a565b5b62000997888289016200073d565b935050606086013567ffffffffffffffff811115620009bb57620009ba6200061a565b5b620009c9888289016200073d565b925050608086013567ffffffffffffffff811115620009ed57620009ec6200061a565b5b620009fb888289016200073d565b9150509295509295909350565b7f4e487b7100000000000000000000000000000000000000000000000000000000600052602260045260246000fd5b6000600282049050600182168062000a5057607f821691505b60208210810362000a665762000a6562000a08565b5b50919050565b600081905092915050565b600062000a8482620004a9565b62000a90818562000a6c565b935062000aa2818560208601620004c5565b80840191505092915050565b600062000abc828462000a77565b915081905092915050565b600082825260208201905092915050565b7f436f6e74726163742077697468206e616d65206d757374206578697374000000600082015250565b600062000b10601d8362000ac7565b915062000b1d8262000ad8565b602082019050919050565b6000602082019050818103600083015262000b438162000b01565b9050919050565b7f4e616d652063616e6e6f742062652074616b656e000000000000000000000000600082015250565b600062000b8260148362000ac7565b915062000b8f8262000b4a565b602082019050919050565b6000602082019050818103600083015262000bb58162000b73565b9050919050565b62000bc781620008a3565b82525050565b62000bd881620008e8565b82525050565b600062000beb82620004a9565b62000bf7818562000ac7565b935062000c09818560208601620004c5565b62000c1481620004f1565b840191505092915050565b600060a08201905062000c36600083018862000bbc565b62000c45602083018762000bcd565b818103604083015262000c59818662000bde565b9050818103606083015262000c6f818562000bde565b9050818103608083015262000c85818462000bde565b90509695505050505050565b60008190508160005260206000209050919050565b60006020601f8301049050919050565b600082821b905092915050565b60006008830262000cf57fffffffffffffffffffffffffffffffffffffffffffffffffffffffffffffffff8262000cb6565b62000d01868362000cb6565b95508019841693508086168417925050509392505050565b600062000d3a62000d3462000d2e84620008e8565b6200081b565b620008e8565b9050919050565b6000819050919050565b62000d568362000d19565b62000d6e62000d658262000d41565b84845462000cc3565b825550505050565b600090565b62000d8562000d76565b62000d9281848462000d4b565b505050565b5b8181101562000dba5762000dae60008262000d7b565b60018101905062000d98565b5050565b601f82111562000e095762000dd38162000c91565b62000dde8462000ca6565b8101602085101562000dee578190505b62000e0662000dfd8562000ca6565b83018262000d97565b50505b505050565b600082821c905092915050565b600062000e2e6000198460080262000e0e565b1980831691505092915050565b600062000e49838362000e1b565b9150826002028217905092915050565b62000e6482620004a9565b67ffffffffffffffff81111562000e805762000e7f62000629565b5b62000e8c825462000a37565b62000e9982828562000dbe565b600060209050601f83116001811462000ed1576000841562000ebc578287015190505b62000ec8858262000e3b565b86555062000f38565b601f19841662000ee18662000c91565b60005b8281101562000f0b5784890151825560018201915060208501945060208101905062000ee4565b8683101562000f2b578489015162000f27601f89168262000e1b565b8355505b6001600288020188555050505b50505050505056fe60806040523480156200001157600080fd5b50604051620016a6380380620016a68339818101604052810190620000379190620002fa565b83600381905550846000806101000a81548173ffffffffffffffffffffffffffffffffffffffff021916908373ffffffffffffffffffffffffffffffffffffffff16021790555081600190816200008f919062000620565b508060029081620000a1919062000620565b508260059081620000b3919062000620565b506000600481905550505050505062000707565b6000604051905090565b600080fd5b600080fd5b600073ffffffffffffffffffffffffffffffffffffffff82169050919050565b60006200010882620000db565b9050919050565b6200011a81620000fb565b81146200012657600080fd5b50565b6000815190506200013a816200010f565b92915050565b6000819050919050565b620001558162000140565b81146200016157600080fd5b50565b60008151905062000175816200014a565b92915050565b600080fd5b600080fd5b6000601f19601f8301169050919050565b7f4e487b7100000000000000000000000000000000000000000000000000000000600052604160045260246000fd5b620001d08262000185565b810181811067ffffffffffffffff82111715620001f257620001f162000196565b5b80604052505050565b600062000207620000c7565b9050620002158282620001c5565b919050565b600067ffffffffffffffff82111562000238576200023762000196565b5b620002438262000185565b9050602081019050919050565b60005b838110156200027057808201518184015260208101905062000253565b60008484015250505050565b6000620002936200028d846200021a565b620001fb565b905082815260208101848484011115620002b257620002b162000180565b5b620002bf84828562000250565b509392505050565b600082601f830112620002df57620002de6200017b565b5b8151620002f18482602086016200027c565b91505092915050565b600080600080600060a08688031215620003195762000318620000d1565b5b6000620003298882890162000129565b95505060206200033c8882890162000164565b945050604086015167ffffffffffffffff81111562000360576200035f620000d6565b5b6200036e88828901620002c7565b935050606086015167ffffffffffffffff811115620003925762000391620000d6565b5b620003a088828901620002c7565b925050608086015167ffffffffffffffff811115620003c457620003c3620000d6565b5b620003d288828901620002c7565b9150509295509295909350565b600081519050919050565b7f4e487b7100000000000000000000000000000000000000000000000000000000600052602260045260246000fd5b600060028204905060018216806200043257607f821691505b602082108103620004485762000447620003ea565b5b50919050565b60008190508160005260206000209050919050565b60006020601f8301049050919050565b600082821b905092915050565b600060088302620004b27fffffffffffffffffffffffffffffffffffffffffffffffffffffffffffffffff8262000473565b620004be868362000473565b95508019841693508086168417925050509392505050565b6000819050919050565b600062000501620004fb620004f58462000140565b620004d6565b62000140565b9050919050565b6000819050919050565b6200051d83620004e0565b620005356200052c8262000508565b84845462000480565b825550505050565b600090565b6200054c6200053d565b6200055981848462000512565b505050565b5b8181101562000581576200057560008262000542565b6001810190506200055f565b5050565b601f821115620005d0576200059a816200044e565b620005a58462000463565b81016020851015620005b5578190505b620005cd620005c48562000463565b8301826200055e565b50505b505050565b600082821c905092915050565b6000620005f560001984600802620005d5565b1980831691505092915050565b6000620006108383620005e2565b9150826002028217905092915050565b6200062b82620003df565b67ffffffffffffffff81111562000647576200064662000196565b5b62000653825462000419565b6200066082828562000585565b600060209050601f83116001811462000698576000841562000683578287015190505b6200068f858262000602565b865550620006ff565b601f198416620006a8866200044e565b60005b82811015620006d257848901518255600182019150602085019450602081019050620006ab565b86831015620006f25784890151620006ee601f891682620005e2565b8355505b6001600288020188555050505b505050505050565b610f8f80620007176000396000f3fe6080604052600436106100865760003560e01c806366ce47a51161005957806366ce47a51461013557806366d003ac146101605780638c857a1a1461018b578063a67f958c146101b6578063c1cbbca7146101cd57610086565b8063034fbdb71461008b57806336e058ca146100b65780633b655cc4146100e1578063597e47341461010c575b600080fd5b34801561009757600080fd5b506100a06101e9565b6040516100ad9190610a08565b60405180910390f35b3480156100c257600080fd5b506100cb610277565b6040516100d89190610a43565b60405180910390f35b3480156100ed57600080fd5b506100f661027d565b6040516101039190610a08565b60405180910390f35b34801561011857600080fd5b50610133600480360381019061012e9190610a8f565b61030b565b005b34801561014157600080fd5b5061014a61044f565b6040516101579190610a43565b60405180910390f35b34801561016c57600080fd5b50610175610455565b6040516101829190610afd565b60405180910390f35b34801561019757600080fd5b506101a0610479565b6040516101ad9190610a08565b60405180910390f35b3480156101c257600080fd5b506101cb610507565b005b6101e760048036038101906101e29190610a8f565b610659565b005b600180546101f690610b47565b80601f016020809104026020016040519081016040528092919081815260200182805461022290610b47565b801561026f5780601f106102445761010080835404028352916020019161026f565b820191906000526020600020905b81548152906001019060200180831161025257829003601f168201915b505050505081565b60035481565b6002805461028a90610b47565b80601f01602080910402602001604051908101604052809291908181526020018280546102b690610b47565b80156103035780601f106102d857610100808354040283529160200191610303565b820191906000526020600020905b8154815290600101906020018083116102e657829003601f168201915b505050505081565b60008054906101000a900473ffffffffffffffffffffffffffffffffffffffff1673ffffffffffffffffffffffffffffffffffffffff163373ffffffffffffffffffffffffffffffffffffffff1614610399576040517f08c379a000000000000000000000000000000000000000000000000000000000815260040161039090610bea565b60405180910390fd5b60005b60066001018054905081101561044b5761043860066000016000600660010184815481106103cd576103cc610c0a565b5b9060005260206000200160009054906101000a900473ffffffffffffffffffffffffffffffffffffffff1673ffffffffffffffffffffffffffffffffffffffff1673ffffffffffffffffffffffffffffffffffffffff168152602001908152602001600020836107aa565b808061044390610c68565b91505061039c565b5050565b60045481565b60008054906101000a900473ffffffffffffffffffffffffffffffffffffffff1681565b6005805461048690610b47565b80601f01602080910402602001604051908101604052809291908181526020018280546104b290610b47565b80156104ff5780601f106104d4576101008083540402835291602001916104ff565b820191906000526020600020905b8154815290600101906020018083116104e257829003601f168201915b505050505081565b6000600660000160003373ffffffffffffffffffffffffffffffffffffffff1673ffffffffffffffffffffffffffffffffffffffff16815260200190815260200160002090506000816002015482600001546105639190610cb0565b9050600081116105a8576040517f08c379a000000000000000000000000000000000000000000000000000000000815260040161059f90610d56565b60405180910390fd5b60003373ffffffffffffffffffffffffffffffffffffffff16826040516105ce90610da7565b60006040518083038185875af1925050503d806000811461060b576040519150601f19603f3d011682016040523d82523d6000602084013e610610565b606091505b5050905080610654576040517f08c379a000000000000000000000000000000000000000000000000000000000815260040161064b90610e08565b60405180910390fd5b505050565b34600354826106689190610e28565b11156106a9576040517f08c379a00000000000000000000000000000000000000000000000000000000081526004016106a090610edc565b60405180910390fd5b60405180606001604052803481526020018281526020016000815250600660000160003373ffffffffffffffffffffffffffffffffffffffff1673ffffffffffffffffffffffffffffffffffffffff1681526020019081526020016000206000820151816000015560208201518160010155604082015181600201559050506006600101339080600181540180825580915050600190039060005260206000200160009091909190916101000a81548173ffffffffffffffffffffffffffffffffffffffff021916908373ffffffffffffffffffffffffffffffffffffffff16021790555080600460008282546107a09190610efc565b9250508190555050565b60008054906101000a900473ffffffffffffffffffffffffffffffffffffffff1673ffffffffffffffffffffffffffffffffffffffff163373ffffffffffffffffffffffffffffffffffffffff161461080257600080fd5b60008183600101546108149190610e28565b9050826000015481111561082a57826000015490505b60008060009054906101000a900473ffffffffffffffffffffffffffffffffffffffff1673ffffffffffffffffffffffffffffffffffffffff168260405161087190610da7565b60006040518083038185875af1925050503d80600081146108ae576040519150601f19603f3d011682016040523d82523d6000602084013e6108b3565b606091505b505090508184600201819055508360010154600460008282546108d69190610cb0565b925050819055508061091d576040517f08c379a000000000000000000000000000000000000000000000000000000000815260040161091490610e08565b60405180910390fd5b8360000154821015610972577fed15fe640d0e666c2e9c89609c744a84359d6e4b4fbefb2c818f0774c4d092973383866000015461095b9190610cb0565b604051610969929190610f30565b60405180910390a15b50505050565b600081519050919050565b600082825260208201905092915050565b60005b838110156109b2578082015181840152602081019050610997565b60008484015250505050565b6000601f19601f8301169050919050565b60006109da82610978565b6109e48185610983565b93506109f4818560208601610994565b6109fd816109be565b840191505092915050565b60006020820190508181036000830152610a2281846109cf565b905092915050565b6000819050919050565b610a3d81610a2a565b82525050565b6000602082019050610a586000830184610a34565b92915050565b600080fd5b610a6c81610a2a565b8114610a7757600080fd5b50565b600081359050610a8981610a63565b92915050565b600060208284031215610aa557610aa4610a5e565b5b6000610ab384828501610a7a565b91505092915050565b600073ffffffffffffffffffffffffffffffffffffffff82169050919050565b6000610ae782610abc565b9050919050565b610af781610adc565b82525050565b6000602082019050610b126000830184610aee565b92915050565b7f4e487b7100000000000000000000000000000000000000000000000000000000600052602260045260246000fd5b60006002820490506001821680610b5f57607f821691505b602082108103610b7257610b71610b18565b5b50919050565b7f4f6e6c792074686520726563697069656e742063616e20636f6c6c656374207460008201527f68652066756e6473000000000000000000000000000000000000000000000000602082015250565b6000610bd4602883610983565b9150610bdf82610b78565b604082019050919050565b60006020820190508181036000830152610c0381610bc7565b9050919050565b7f4e487b7100000000000000000000000000000000000000000000000000000000600052603260045260246000fd5b7f4e487b7100000000000000000000000000000000000000000000000000000000600052601160045260246000fd5b6000610c7382610a2a565b91507fffffffffffffffffffffffffffffffffffffffffffffffffffffffffffffffff8203610ca557610ca4610c39565b5b600182019050919050565b6000610cbb82610a2a565b9150610cc683610a2a565b9250828203905081811115610cde57610cdd610c39565b5b92915050565b7f4d75737420686176652072656d61696e696e67206d6f6e657920746f20636f6c60008201527f6c65637400000000000000000000000000000000000000000000000000000000602082015250565b6000610d40602483610983565b9150610d4b82610ce4565b604082019050919050565b60006020820190508181036000830152610d6f81610d33565b9050919050565b600081905092915050565b50565b6000610d91600083610d76565b9150610d9c82610d81565b600082019050919050565b6000610db282610d84565b9150819050919050565b7f4574686572206661696c656420746f2073656e64000000000000000000000000600082015250565b6000610df2601483610983565b9150610dfd82610dbc565b602082019050919050565b60006020820190508181036000830152610e2181610de5565b9050919050565b6000610e3382610a2a565b9150610e3e83610a2a565b9250828202610e4c81610a2a565b91508282048414831517610e6357610e62610c39565b5b5092915050565b7f4d7573742070617920666f722061206d696e696d756d20616d6f756e74206f6660008201527f20756e6974730000000000000000000000000000000000000000000000000000602082015250565b6000610ec6602683610983565b9150610ed182610e6a565b604082019050919050565b60006020820190508181036000830152610ef581610eb9565b9050919050565b6000610f0782610a2a565b9150610f1283610a2a565b9250828201905080821115610f2a57610f29610c39565b5b92915050565b6000604082019050610f456000830185610aee565b610f526020830184610a34565b939250505056fea2646970667358221220a4112b4064828b8fff524d1731d517b79ec7c6da4e0e63128324c5223eb44be364736f6c63430008110033a26469706673582212204e88f395692ba687fcd9bf58ad83235ce20538e47808fff69149fdff28a8b55d64736f6c63430008110033",
  "immutableReferences": {},
  "source": "// SPDX-License-Identifier: MIT\npragma solidity ^0.8.10;\n\ncontract XathonFactory {\n    struct KeyMapping {\n      mapping(string => Xathon) map; \n      string[] keys; \n    }\n\n    KeyMapping private deployedXathons; \n    mapping(string => bool) public takenNames; \n    \n    function deployXathon(address to, uint minimum, string memory unit, string memory name, string memory description) public {\n        require(!takenNames[name], \"Name cannot be taken\");\n        Xathon newXathon = new Xathon(to, minimum, unit, name, description); \n        takenNames[name] = true; \n        \n        deployedXathons.map[name] = newXathon; \n        deployedXathons.keys.push(name); \n    }\n    \n    function getDeployedXathons() public view returns (string[] memory) {\n        return deployedXathons.keys; \n    }\n\n    function getAddress(string memory name) public view returns (Xathon) {\n      require(takenNames[name], \"Contract with name must exist\"); \n      return deployedXathons.map[name];\n    }\n}\n\ncontract Xathon {\n\n  struct Donation {\n    uint maxValue;\n    uint valuePerUnit;\n    uint paid;\n  }\n\n  struct KeyMapping {\n    mapping(address => Donation) map;\n    address[] keys;\n  }\n\n  address public recipient;\n  string public xathonName;\n  string public xathonDescription; \n\n  // the minimum amount of units a contributor must pay for\n  uint public minimumUnitDeposit;\n  uint public donationPerUnit; \n  string public xathonUnit; \n  KeyMapping private donations;\n                 \n\n  event MoneyToClaim(address claimer, uint remaining);\n  \n  constructor(address to, uint minimum, string memory unit, string memory name, string memory description){\n    minimumUnitDeposit = minimum;\n    recipient = to;\n    xathonName = name; \n    xathonDescription = description;\n    xathonUnit = unit;\n    donationPerUnit = 0; \n  }\n\n  function contribute(uint valuePerUnit) public payable {\n    // require to pay for at least minimumUnitDeposit amount of units\n    require(valuePerUnit * minimumUnitDeposit <= msg.value, \"Must pay for a minimum amount of units\");\n    donations.map[msg.sender] = Donation({\n      maxValue: msg.value,\n      valuePerUnit: valuePerUnit,\n      paid: 0\n    });\n    donations.keys.push(msg.sender);\n    donationPerUnit += valuePerUnit; \n  }\n\n  function pay(Donation storage d, uint walked) private {\n    require(msg.sender == recipient);\n    uint toPay = d.valuePerUnit * walked;\n    if (toPay > d.maxValue) {\n      toPay = d.maxValue;\n \n    }\n    (bool sent, ) = recipient.call{value: toPay}(\"\");\n    d.paid = toPay;\n    donationPerUnit -= d.valuePerUnit; \n    require(sent, \"Ether failed to send\");\n    if (toPay < d.maxValue) {\n      emit MoneyToClaim(msg.sender, d.maxValue - toPay);\n    }\n  }\n\n  function collectFunds(uint walked) public {\n    require(msg.sender == recipient, \"Only the recipient can collect the funds\");\n    for (uint i = 0; i < donations.keys.length; i++) {\n      pay(donations.map[donations.keys[i]], walked);\n    }\n  }\n\n  function claimUnspentFunds() public {\n    Donation storage donation = donations.map[msg.sender];\n    uint remainingToPay = donation.maxValue - donation.paid;\n    require(remainingToPay > 0, \"Must have remaining money to collect\");\n    (bool sent, ) = msg.sender.call{value: remainingToPay}(\"\");\n    require(sent, \"Ether failed to send\");\n  }\n}\n",
  "sourcePath": "/Users/avichailevenson/Documents/projects/Xathon/xathon-ethereum/contracts/Walkathon.sol",
  "compiler": {
    "name": "solc",
    "version": "0.8.17+commit.8df45f5f.Emscripten.clang"
  },
  "schemaVersion": "3.4.3",
  "updatedAt": "2022-12-08T01:32:13.481Z",
  "networkType": "ethereum",
  "devdoc": {
    "kind": "dev",
    "methods": {},
    "version": 1
  },
  "userdoc": {
    "kind": "user",
    "methods": {},
    "version": 1
  }
}